:020000040800F2
:10000000005000201D4B0008A1480008AD48000822
:10001000B3480008B9480008BF48000800000000C5
:10002000000000000000000000000000C5480008BB
:10003000D148000800000000DD480008E948000839
:10004000654B0008F5480008654B0008654B000843
:10005000654B0008654B0008654B0008654B0008C0
:10006000654B0008654B0008654B0008654B0008B0
:100070000149000815490008654B0008654B000858
:10008000654B0008654B0008654B0008654B000890
:10009000654B0008654B0008654B0008654B000880
:1000A000654B0008654B0008654B0008654B000870
:1000B00029490008654B0008654B0008654B00089E
:1000C000654B0008654B0008654B00083D4900087A
:1000D000654B0008654B0008654B00085149000856
:1000E000654B0008654B0008654B000800000000E8
:1000F0000000000000000000000000000000000000
:0C01000000000000000000005FF808F1A3
:10010C0010B5054C237833B9044B13B10448AFF345
:10011C0000800123237010BD20000020000000008F
:10012C00C04B000808B5034B1BB103490348AFF3A0
:10013C00008008BD0000000024000020C04B000817
:10014C0090B484B000AFF860B9603B601346FB809C
:10015C00FB68BA681A60FB68FA881A81FB683A680F
:10016C005A60FA684FF000034FF00004C2E90434FF
:10017C00FB6818461037BD4690BC704790B58BB0E5
:10018C0000AF78607B6803F11004D4E9003423439A
:10019C0067D107F10C031946786803F018FD034684
:1001AC00002B0CBF01230023DBB2002B01D000235A
:1001BC005CE03B7B23F03F03DBB2002B37D17B7C35
:1001CC00C3F30303DBB287F82730BB7CC3F3010313
:1001DC00DBB29B021AB2FB7C9B001BB213431AB21C
:1001EC003B7DC3F38113DBB21BB213431BB2BB8445
:1001FC007B7DC3F30103DBB25B005AB2BB7DC3F35F
:10020C00C013DBB25BB213435BB287F82330BB8CF9
:10021C000133194697F8232097F827301344073BEE
:10022C0001FA03F3BB84BB8C9B0ABB8419E03B7BB8
:10023C0023F03F03DBB2402B13D1FB7CC3F38503CC
:10024C00DBB21B043A7D120213437A7D1343FB612C
:10025C00FB699B02FB61FB694FF000047A68C2E901
:10026C0004347B6803F11004D4E9003418462C37AD
:10027C00BD4690BD80B586B000AFF8600B467A6085
:10028C00FB727B687B61FB7A00221946F86800F0F0
:10029C00CBF90346002B14BF01230023DBB2002B48
:1002AC0004D0F86800F0F4FA002323E0FF23FB7479
:1002BC00FB7CFF2B07D107F1130301221946F868C9
:1002CC0000F018FAF4E710227969F86800F012FAD5
:1002DC0007F1130301221946F86800F00BFA07F135
:1002EC00130301221946F86800F004FAF86800F0CC
:1002FC00CFFA012318461837BD4680BD80B586B0AD
:10030C0000AFF860B9607A60BA681121F86800F043
:10031C008BF90346002B14BF01230023DBB2002B07
:10032C0004D0F86800F0B4FA002329E0FF23FB7531
:10033C00FB7DFF2B08D1FB68186807F117016423BC
:10034C00012202F0C6F9F3E74FF400727968F868FD
:10035C0000F0D0F9FF23FB7507F1170301221946B2
:10036C00F86800F0C7F9FF23FB7507F117030122AA
:10037C001946F86800F0BEF9F86800F089FA012314
:10038C0018461837BD4680BD80B586B000AFF86002
:10039C00B9607A60BA681821F86800F045F903462C
:1003AC00002B14BF01230023DBB2002B04D0F86810
:1003BC0000F06EFA00235CE0FE23FB75FB68186806
:1003CC0007F117016423012202F048F8FB68186852
:1003DC0064234FF40072796802F040F8FF23FB7538
:1003EC00FB68186807F117016423012202F036F844
:1003FC00FB68186807F117016423012202F02EF83C
:10040C0007F1170301221946F86800F073F9FB7D18
:10041C0003F01F03052B04D0F86800F039FA002311
:10042C0027E0F86800F029F800220D21F86800F0A8
:10043C00FBF80346002B14BF01230023DBB2002B77
:10044C0004D0F86800F024FA002312E007F1170337
:10045C0001221946F86800F04DF9FB7D002B04D001
:10046C00F86800F015FA002303E0F86800F010FAC1
:10047C00012318461837BD4680BD80B586B002AF43
:10048C007860FF23FB73FF23BB73BB7BFF2B0BD06D
:10049C007B68186807F10E0207F10F010123009326
:1004AC00012302F024FAF0E700BF1037BD4680BDEF
:1004BC0080B586B002AF78607B681B683822DA6141
:1004CC007B681B68184602F01BFD786800F0E0F9A9
:1004DC00534B1B68BB607B68186807F108016423E9
:1004EC00009304234F4A02F002FA7B68186807F164
:1004FC0008016423009304234A4A02F0F8F97B684C
:10050C00186807F10801642300930423454A02F09C
:10051C00EEF97B68186807F1080164230093042343
:10052C00404A02F0E4F97B68186807F1080164237B
:10053C00009304233B4A02F0DAF9052000F02CFD6D
:10054C00786800F0C7F800220021786800F06CF899
:10055C000346FB73FB7B012B14BF01230023DBB28F
:10056C00002B00D0EFE74FF4D5720821786800F02B
:10057C005BF8034603F00403002B14BF0123002394
:10058C00DBB2002B04D0786800F082F9002343E042
:10059C007B68186807F108016423042202F099F8BB
:1005AC00FB7AAA2B01D0002336E04FF080422921A0
:1005BC00786803F0F5FA0346FB73FB7B002B14BF42
:1005CC0001230023DBB2002B00D0EEE700223A21FE
:1005DC00786800F029F80346002B14BF0123002390
:1005EC00DBB2002B04D0786800F052F9002313E042
:1005FC0007F1080304221946786800F07BF8786844
:10060C0000F046F97B681B680022DA617B681B6886
:10061C00184602F075FC012318461037BD4680BD04
:10062C00044C00083C00002080B586B000AFF86098
:10063C000B467A60FB72FF23BB75F86800F04AF832
:10064C00F868FFF71AFF07F1100300221A609A806E
:10065C00FF237B75FB7A43F04003DBB23B747B6872
:10066C001B0EDBB27B747B681B0CDBB2BB747B6830
:10067C001B0ADBB2FB747B68DBB23B75FB7A002B8D
:10068C0002D195237B7504E0FB7A082B01D18723DB
:10069C007B75FB68186807F110016423062201F0D2
:1006AC00DDFE1423FB75BB7D5BB2002B0DDAFB7DED
:1006BC00002B0AD007F1160301221946F86800F046
:1006CC0019F8FB7D013BFB75EDE7BB7D1846183730
:1006DC00BD4680BD80B582B000AF78607B6858683D
:1006EC007B681B890022194601F065FA00BF0837A8
:1006FC00BD4680BD90B589B002AFF860B9601346B5
:10070C00FB800023FB75FB681B6893F85030012BB2
:10071C0001D10223B8E0FB681B68012283F850204A
:10072C00FB681B6893F85130DBB2012B0CBF012323
:10073C000023DBB2002B04D0FB681B68052283F876
:10074C005120FB681B6800225A65FB681B68BA685D
:10075C009A63FB681B68FA88DA87FB681B68FA885F
:10076C009A87FB681B68BA681A63FB681B68FA886F
:10077C00DA86FB681B68FA889A86FB681B6800227D
:10078C001A64FB681B6800225A64FB681B681B68B0
:10079C001B6803F04003402B14BF01230023DBB282
:1007AC00002B09D0FB681B681B68FA68126812687A
:1007BC00126842F040021A60FB681B68DB8F9BB228
:1007CC00002B14BF01230023DBB2002B31D0FB68BC
:1007DC001B681B68FF22DA60FB681B681B689B6840
:1007EC0003F00203022B14BF01230023DBB2002B06
:1007FC0000D0F1E7FB681B681B689B6803F00103E2
:10080C00012B14BF01230023DBB2002B00D0F1E736
:10081C00BB685A1CBA60FA6812681268D268D2B205
:10082C001A70FB681B68DA8F92B2013A92B2DA87BF
:10083C00C2E7FB681C6800F0A5FB03460193642328
:10084C000093002380222146F86800F031F803461B
:10085C00002B14BF01230023DBB2002B09D0FB6853
:10086C001B68FA681268526D42F020025A65032325
:10087C00FB75FB681B68012283F85120FB681B6821
:10088C00002283F85020FB7D18461C37BD4690BDD6
:10089C0080B582B000AF78607B6858687B681B8934
:1008AC000122194601F087F900BF0837BD4680BD0B
:1008BC0080B584B000AFF860B9607A603B60BB680B
:1008CC001B689A687B681A403B689A4214BF0123E4
:1008DC000023DBB2002B52D0BB69B3F1FF3FEED04B
:1008EC00BB69002B07D000F04DFB0246FB69D21A06
:1008FC00BB699A4201D3012300E00023002BDED018
:10090C00BB681B68BA681268526822F0E0025A6031
:10091C00BB685B68B3F5827F11D1BB689B68B3F58C
:10092C00004F04D0BB689B68B3F5806F07D1BB68E0
:10093C001B68BA681268126822F040021A60BB6821
:10094C009B6AB3F5005F10D1BB681A68BB681B6863
:10095C0019684DF6FF730B401360BB681B68BA68CF
:10096C001268126842F400521A60BB68012283F8C4
:10097C005120BB68002283F85020032300E00023A1
:10098C0018461037BD4680BD80B586B000AF07F164
:10099C00080300221A605A609A60DA601A4A1A4BED
:1009AC009B6943F004039361174B9B6903F00403A9
:1009BC007B607B68A023BB600123FB6003237B610E
:1009CC0007F108031946114800F080FF4023BB6073
:1009DC000023FB6000233B6107F1080319460B4819
:1009EC0000F074FF4FF40043BB600123FB60022353
:1009FC007B6107F108031946044800F067FF00BF4C
:100A0C001837BD4680BD00BF0010024000080140F1
:100A1C0080B584B000AFF860B9607A600B4B93F886
:100A2C003930DBB2202B14BF01230023DBB2002BA7
:100A3C0000D0F3E77B689BB21A46B968034802F012
:100A4C0057FC7B6818461037BD4680BDEC01002072
:100A5C0080B582B000AF01220421334801F0ABF81D
:100A6C0001220821304801F0A6F800237B607B6846
:100A7C000F2B4ADC05233B603B68002B41DB2B4AE8
:100A8C007B6813441B78DBB21A463B6842FA03F3CB
:100A9C0003F00103002B14BF01230023DBB2002B56
:100AAC0005D001228021204801F085F804E00022C5
:100ABC0080211D4801F07FF8012220211A4801F005
:100ACC007AF800222021184801F075F840211648C8
:100ADC0001F05AF803461A463B6802FA03F1144A2D
:100AEC007B6813441B785AB24BB213435BB2D9B236
:100AFC000F4A7B6813440A461A703B68013B3B6003
:100B0C00BAE77B6801337B60B1E70122102106480C
:100B1C0001F051F800221021034801F04CF800BFFD
:100B2C000837BD4680BD00BF000801400000002012
:100B3C005800002080B582B000AF0023FB71042167
:100B4C00454801F021F80346012B0CBF012300237B
:100B5C00DBB2002B06D0002204213F4801F02BF819
:100B6C000123FB710023BB8000237B8000224FF408
:100B7C008071394801F01FF8BB88B3F5805F1FDB2B
:100B8C0001224FF48071344801F015F80122102134
:100B9C00314801F010F8002210212F4801F00BF819
:100BAC00FB79002B53D0012210212B4801F003F8C4
:100BBC0000221021284800F0FEFF0023FB7146E0C4
:100BCC007B88BF2B33DC7B88244AA2FB0323DB0806
:100BDC009BB21A46224B33F8123018467A881F4BB8
:100BEC00A3FB0213D9080B465B000B449B00D31AE2
:100BFC009BB240FA03F303F00103002B05D0012252
:100C0C008021154800F0D7FF04E000228021124813
:100C1C0000F0D1FF012220210F4800F0CCFF002270
:100C2C0020210D4800F0C7FF7B8801337B80012217
:100C3C004FF40041084800F0BEFF00224FF4004181
:100C4C00054800F0B8FFBB880133BB8094E700BFB8
:100C5C0000BF0837BD4680BD00080140ABAAAAAA58
:100C6C006800002080B500AF00224FF400410F480F
:100C7C0000F0A1FF002220210C4800F09CFF002274
:100C8C0008210A4800F097FF01220421074800F0D0
:100C9C0092FF00221021054800F08DFF01224FF435
:100CAC008071024800F087FF00BF80BD0008014042
:100CBC0080B588B002AF0123FB7100237B61002358
:100CCC00FB7400F007F900F08DF803F037F803F02F
:100CDC000FF803F075FE03F0B5FC02F087FF03F08C
:100CEC007BFC03F005FB4FF6FF7003F0EDFB4FF4BC
:100CFC00A07300934FF4F07300220021354803F0E9
:100D0C0009FC3548FFF7D4FB0346FB71FB7983F0F4
:100D1C000103DBB2002B01D000F0AFF80023FB6025
:100D2C00FB680F2B08DC2D4AFB68002122F81310FE
:100D3C00FB680133FB60F3E70023BB60BB680F2B40
:100D4C0008DC274ABB6813443F221A70BB68013386
:100D5C00BB60F3E7FFF718FEFFF77AFEFFF778FEAC
:100D6C00FFF7E8FE00F00EF902467B69D31AB3F5E3
:100D7C00FA7F8CBF01230023DBB2002BF0D000F0F4
:100D8C0001F97861FB7C082B06DDFB7C134A40F6ED
:100D9C00FF7122F8131005E0FB7C104A40F6FF713E
:100DAC0022F81310FB7C002B03D10C4B0022DA83AE
:100DBC0005E0FB7C013B094A002122F81310FB7C67
:100DCC0001335A4203F00F0302F00F0258BF534293
:100DDC00FB74C5E7204C0008400000206800002090
:100DEC000000002080B590B000AF07F11803282256
:100DFC000021184603F0D6FE3B1D00221A605A60F3
:100E0C009A60DA601A610223BB610123BB62102372
:100E1C00FB6202237B630023BB634FF46013FB6311
:100E2C0007F11803184600F0F7FE0346002B14BF19
:100E3C0001230023DBB2002B01D000F01EF80F239E
:100E4C007B600223BB600023FB604FF480633B613B
:100E5C0000237B613B1D0221184601F041F903463A
:100E6C00002B14BF01230023DBB2002B01D000F0B8
:100E7C0004F800BF4037BD4680BD80B400AF00BF52
:100E8C00BD4680BC704780B582B000AF78603960D9
:100E9C007B68012B0BD13B684FF6FF72934206D156
:100EAC00054B4FF4805205490548FFF749F900BF3F
:100EBC000837BD4680BD00BF000C0140B8000020C3
:100ECC004000002080B500AF4FF6FF710120FFF706
:100EDC00DAFF80BD80B500AF084A084B1B6843F0B1
:100EEC0010031360032000F039FA002000F008F81A
:100EFC0003F096FC0023184680BD00BF0020024082
:100F0C0080B582B000AF7860124B1A68124B1B7818
:100F1C0019464FF47A73B3FBF1F3B2FBF3F31846B3
:100F2C0000F051FA0346002B01D001230EE07B6840
:100F3C000F2B0AD8002279684FF0FF3000F019FA15
:100F4C00064A7B681360002300E00123184608372B
:100F5C00BD4680BD180000201400002010000020A9
:100F6C0080B400AF054B1B781A46054B1B68134425
:100F7C00034A136000BFBD4680BC704714000020BC
:100F8C008C00002080B400AF024B1B681846BD4695
:100F9C0080BC70478C00002080B584B000AF7860B6
:100FAC00FFF7F0FFB8607B68FB60FB68B3F1FF3FB5
:100FBC0005D0094B1B781A46FB681344FB6000BF35
:100FCC00FFF7E0FF0246BB68D21AFB689A42F7D3E0
:100FDC0000BF1037BD4680BD1400002080B584B022
:100FEC0000AF78607B68002B01D10123ECE07B68BB
:100FFC0093F82030DBB2002B02D1786802F02CFE83
:10100C007B681B687A681268126822F002021A6008
:10101C00FFF7B8FFF86012E0FFF7B4FF0246FB6879
:10102C00D31A0A2B0BD97B685B6A43F400327B68BA
:10103C005A627B68052283F820200123C4E07B6878
:10104C001B685B6803F00203002BE5D17B681B680F
:10105C007A681268126842F001021A60FFF792FF78
:10106C00F86012E0FFF78EFF0246FB68D31A0A2BDA
:10107C000BD97B685B6A43F400327B685A627B68ED
:10108C00052283F8202001239EE07B681B685B68A7
:10109C0003F00103002BE5D07B681B7E012B08D1EC
:1010AC007B681B687A681268126842F080021A60CA
:1010BC0007E07B681B687A681268126822F080026D
:1010CC001A607B685B7E012B08D17B681B687A6891
:1010DC001268126842F040021A6007E07B681B68D5
:1010EC007A681268126822F040021A607B689B7E54
:1010FC00012B08D17B681B687A681268126842F071
:10110C0020021A6007E07B681B687A681268126814
:10111C0022F020021A607B68DB7E012B08D17B68F1
:10112C001B687A681268126822F010021A6007E0D5
:10113C007B681B687A681268126842F010021A60A9
:10114C007B681B7F012B08D17B681B687A6812684F
:10115C00126842F008021A6007E07B681B687A6824
:10116C001268126822F008021A607B685B7F012B00
:10117C0008D17B681B687A681268126842F0040216
:10118C001A6007E07B681B687A681268126822F0A4
:10119C0004021A607B681B687A6891687A68D26866
:1011AC0011437A68126911437A68526911437A685B
:1011BC005268013A0A43DA617B6800225A627B6802
:1011CC00012283F82020002318461037BD4680BD2D
:1011DC0080B485B000AF78607B6803F00703FB60D8
:1011EC000C4BDB68BB60BA684FF6FF031340BB6067
:1011FC00FB681A02BB68134343F0BF6343F400332C
:10120C00BB60044ABB68D36000BF1437BD4680BCCA
:10121C00704700BF00ED00E080B400AF044BDB680A
:10122C001B0A03F007031846BD4680BC704700BF7D
:10123C0000ED00E080B483B000AF0346FB710849B9
:10124C0097F907305B09FA7902F01F02012000FAC6
:10125C0002F241F8232000BF0C37BD4680BC70471A
:10126C0000E100E080B483B000AF03463960FB714D
:10127C0097F90730002B0BDA0D49FB7903F00F03BC
:10128C00043B3A68D2B21201D2B20B441A7609E08E
:10129C00084997F907303A68D2B21201D2B20B441E
:1012AC0083F8002300BF0C37BD4680BC704700BFDD
:1012BC0000ED00E000E100E080B489B000AFF86020
:1012CC00B9607A60FB6803F00703FB61FB69C3F14B
:1012DC000703042B28BF0423BB61FB690433062BD3
:1012EC0002D9FB69033B00E000237B610122BB694F
:1012FC0002FA03F35A1EBB681A407B699A4001211B
:10130C007B6901FA03F3591E7B680B4013431846A3
:10131C002437BD4680BC704780B582B000AF786082
:10132C007B68013BB3F1807F01D301230FE00A4AB4
:10133C007B68013B53600F214FF0FF30FFF792FFAA
:10134C00054B00229A60044B07221A6000231846B2
:10135C000837BD4680BD00BF10E000E080B582B00C
:10136C0000AF78607868FFF733FF00BF0837BD46E1
:10137C0080BD80B586B000AF0346B9607A60FB7360
:10138C0000237B61FFF748FF78617A68B968786958
:10139C00FFF792FF024697F90F3011461846FFF7F8
:1013AC0061FF00BF1837BD4680BD80B582B000AF6D
:1013BC000346FB7197F907301846FFF73BFF00BF58
:1013CC000837BD4680BD80B582B000AF78607868C4
:1013DC00FFF7A2FF034618460837BD4680BD000044
:1013EC0080B485B000AF78600023FB607B68002B75
:1013FC0001D1012343E07B681B681A46224B13443E
:10140C00224AA2FB03231B099A007B681A647B689F
:10141C001F4ADA637B68022283F821207B681B68F1
:10142C001B68FB60FB6823F47F5323F03003FB60E5
:10143C007B685A687B689B681A437B68DB681A4335
:10144C007B681B691A437B685B691A437B689B69E1
:10145C001A437B68DB691343FA681343FB607B68B0
:10146C001B68FA681A607B6800229A637B68012209
:10147C0083F821207B68002283F820200023184663
:10148C001437BD4680BC7047F8FFFDBFCDCCCCCC2B
:10149C000000024080B586B000AFF860B9607A6099
:1014AC003B600023FB75FB6893F82030012B01D1C6
:1014BC0002234AE0FB68012283F82020FB6893F8A2
:1014CC002130012B3AD1FB68022283F82120FB68E2
:1014DC0000229A63FB681B68FA681268126822F093
:1014EC0001021A603B687A68B968F86800F0C0F9C4
:1014FC00FB68DB6A002B08D0FB681B68FA68126873
:10150C00126842F00E021A600FE0FB681B68FA6862
:10151C001268126822F004021A60FB681B68FA68F1
:10152C001268126842F00A021A60FB681B68FA68BB
:10153C001268126842F001021A6005E0FB68002292
:10154C0083F820200223FB75FB7D18461837BD4617
:10155C0080BD000080B584B000AF78600023FB73C1
:10156C007B6893F82130022B05D07B6804229A63A8
:10157C000123FB7357E07B681B687A68126812685A
:10158C0022F00E021A607B681B687A681268126877
:10159C0022F001021A60264A7B681B681946254B0B
:1015AC0099422ED07B681B681946234B994226D052
:1015BC007B681B681946214B99421DD07B681B68C0
:1015CC0019461F4B994214D07B681B6819461D4B5A
:1015DC0099420BD07B681B6819461B4B994202D170
:1015EC004FF480130EE04FF080730BE04FF4803318
:1015FC0008E04FF4805305E04FF4807302E01023B1
:10160C0000E0012353607B68012283F821207B6872
:10161C00002283F820207B685B6B002B03D07B6857
:10162C005B6B78689847FB7B18461037BD4680BDCE
:10163C0000000240080002401C0002403000024042
:10164C0044000240580002406C00024080B584B057
:10165C0000AF78607B68DB6B1B68FB607B681B688A
:10166C001B68BB607B681B6C04229A40FB681340B0
:10167C00002B55D0BB6803F00403002B50D07B68C3
:10168C001B681B6803F02003002B07D17B681B68C9
:10169C007A681268126822F004021A606D4A7B683C
:1016AC001B6819466C4B99422ED07B681B681946F7
:1016BC006A4B994226D07B681B681946684B994245
:1016CC001DD07B681B681946664B994214D07B6809
:1016DC001B681946644B99420BD07B681B681946F2
:1016EC00624B994202D14FF480030EE04FF08063BD
:1016FC000BE04FF4802308E04FF4804305E04FF4F7
:10170C00806302E0402300E0042353607B68DB6AC3
:10171C00002B00F09A807B68DB6A7868984794E02D
:10172C007B681B6C02229A40FB681340002B5CD038
:10173C00BB6803F00203002B57D07B681B681B6847
:10174C0003F02003002B0BD17B681B687A681268AE
:10175C00126822F00A021A607B68012283F82120A9
:10176C003C4A7B681B6819463B4B99422ED07B68E0
:10177C001B681946394B994226D07B681B68194661
:10178C00374B99421DD07B681B681946354B9942E3
:10179C0014D07B681B681946334B99420BD07B687D
:1017AC001B681946314B994202D14FF400130EE0DD
:1017BC004FF000730BE04FF4003308E04FF400538C
:1017CC0005E04FF4007302E0202300E00223536095
:1017DC007B68002283F820207B689B6A002B34D026
:1017EC007B689B6A786898472FE07B681B6C0822A3
:1017FC009A40FB681340002B28D0BB6803F0080309
:10180C00002B23D07B681B687A681268126822F060
:10181C000E021A607B68DB6B7A68126C012101FA8C
:10182C0002F25A607B6801229A637B68012283F87A
:10183C0021207B68002283F820207B681B6B002B07
:10184C0004D07B681B6B7868984700BF00BF1037CB
:10185C00BD4680BD00000240080002401C00024052
:10186C003000024044000240580002406C0002402C
:10187C0080B485B000AFF860B9607A603B60FB68FB
:10188C00DB6BFA68126C012101FA02F25A60FB68F8
:10189C001B683A685A60FB685B68102B08D1FB68C0
:1018AC001B687A689A60FB681B68BA68DA6007E0A4
:1018BC00FB681B68BA689A60FB681B687A68DA6018
:1018CC0000BF1437BD4680BC7047000080B48BB09D
:1018DC0000AF786039600023FB610023BB610023FB
:1018EC007B6100233B6200233B6100237B6227E189
:1018FC0001227B6A02FA03F3FB613B681A68FB69FD
:10190C001340BB61BA69FB699A4240F016813B688F
:10191C005B68122B34D0122B0DD8022B2BD0022B40
:10192C0004D8002B31D0012B1CD048E0032B43D022
:10193C00112B1BD043E0874A934226D0854A934211
:10194C0006D8854A934220D0844A93421DD036E073
:10195C00834A934219D0834A934216D0824A9342C7
:10196C0013D02CE03B68DB683B6228E03B68DB680B
:10197C0004333B6223E03B68DB6808333B621EE0C8
:10198C003B68DB680C333B6219E03B689B68002BBF
:10199C0002D104233B6212E03B689B68012B05D10A
:1019AC0008233B627B68FA691A6108E008233B62F2
:1019BC007B68FA695A6102E000233B6200BFBB6995
:1019CC00FF2B01D87B6801E07B680433FB60BB69AB
:1019DC00FF2B02D87B6A9B0002E07B6A083B9B00D2
:1019EC003B61FB681A680F213B6901FA03F3DB4387
:1019FC001A40396A3B6901FA03F31A43FB681A600F
:101A0C003B685B6803F08053002B00F09680574ACC
:101A1C00564B9B6943F001039361544B9B6903F054
:101A2C000103BB60BB68524A7B6A9B08023352F8C5
:101A3C0023307B617B6A03F003039B000F2202FAC5
:101A4C0003F3DB437A6913407B617B68494A934219
:101A5C0013D07B68484A93420DD07B68474A934227
:101A6C0007D07B68464A934201D1032306E0042346
:101A7C0004E0022302E0012300E000237A6A02F072
:101A8C000302920093407A6913437B6138497B6A65
:101A9C009B0802337A6941F823203B685B6803F4A6
:101AAC008033002B06D03749364B1A68BB69134379
:101ABC000B6006E03349334B1A68BB69DB431340B8
:101ACC000B603B685B6803F40033002B06D02D4998
:101ADC002C4B5A68BB6913434B6006E02949294BD0
:101AEC005A68BB69DB4313404B603B685B6803F48B
:101AFC008013002B06D02349224B9A68BB691343F1
:101B0C008B6006E01F491F4B9A68BB69DB4313408F
:101B1C008B603B685B6803F40013002B06D01949FB
:101B2C00184BDA68BB691343CB6006E01549154BBB
:101B3C00DA68BB69DB431340CB607B6A01337B62A1
:101B4C007B6A0F2B7FF6D4AE00BF2C37BD4680BC12
:101B5C00704700BF0000211000001110000012108F
:101B6C000000311000003210000022100010024062
:101B7C000000014000080140000C01400010014031
:101B8C00001401400004014080B485B000AF7860BF
:101B9C000B467B807B689A687B881340002B02D0B5
:101BAC000123FB7301E00023FB73FB7B1846143706
:101BBC00BD4680BC704780B483B000AF78600B46E4
:101BCC007B8013467B707B78002B03D07A887B68F4
:101BDC001A6103E07B881A047B681A6100BF0C371A
:101BEC00BD4680BC7047000080B500AF064B5B69FA
:101BFC0003F48033002B05D000F008F8024B4FF4AF
:101C0C0080325A6100BF80BD0004014080B400AF37
:101C1C0000BFBD4680BC704780B586B000AF786011
:101C2C0000233B617B681B6803F00103002B00F071
:101C3C008780924B5B6803F00C03042B0CD08F4B0A
:101C4C005B6803F00C03082B12D18C4B5B6803F41C
:101C5C008033B3F5803F0BD1884B1B6803F4003302
:101C6C00002B6CD07B685B68002B68D101232DE2C4
:101C7C007B685B68B3F5803F06D1804A7F4B1B685D
:101C8C0043F4803313602EE07B685B68002B0CD12F
:101C9C007A4A7A4B1B6823F480331360774A774B6C
:101CAC001B6823F4802313601DE07B685B68B3F52D
:101CBC00A02F0CD1714A714B1B6843F48023136025
:101CCC006E4A6E4B1B6843F4803313600BE06B4A17
:101CDC006A4B1B6823F480331360684A674B1B689C
:101CEC0023F4802313607B685B68002B13D0FFF711
:101CFC0049F9386108E0FFF745F902463B69D31A08
:101D0C00642B01D90323E1E15C4B1B6803F4003322
:101D1C00002BF0D014E0FFF735F9386108E0FFF73D
:101D2C0031F902463B69D31A642B01D90323CDE167
:101D3C00524B1B6803F40033002BF0D100E000BFC2
:101D4C007B681B6803F00203002B63D04B4B5B6872
:101D5C0003F00C03002B0BD0484B5B6803F00C0317
:101D6C00082B1CD1454B5B6803F48033002B16D138
:101D7C00424B1B6803F00203002B05D07B681B69E8
:101D8C00012B01D00123A1E13C493C4B1B6823F002
:101D9C00F8027B685B69DB0013430B603AE07B68FD
:101DAC001B69002B20D0364B01221A60FFF7EAF892
:101DBC00386108E0FFF7E6F802463B69D31A022BBC
:101DCC0001D9032382E12D4B1B6803F00203002B86
:101DDC00F0D02A49294B1B6823F0F8027B685B6919
:101DEC00DB0013430B6015E0254B00221A60FFF754
:101DFC00C9F8386108E0FFF7C5F802463B69D31A09
:101E0C00022B01D9032361E11C4B1B6803F0020375
:101E1C00002BF0D17B681B6803F00803002B39D032
:101E2C007B689B69002B19D0164B01221A60FFF7B7
:101E3C00A9F8386108E0FFF7A5F802463B69D31A08
:101E4C00022B01D9032341E10C4B5B6A03F0020323
:101E5C00002BF0D0012000F0E3FA1BE0094B00222C
:101E6C001A60FFF78FF838610EE0FFF78BF8024627
:101E7C003B69D31A022B07D9032327E10010024038
:101E8C000000424280044242924B5B6A03F0020320
:101E9C00002BEAD17B681B6803F00403002B00F0D5
:101EAC00A6800023FB758B4BDB6903F08053002B62
:101EBC000DD1884A874BDB6943F08053D361854B46
:101ECC00DB6903F08053FB60FB680123FB75824BDD
:101EDC001B6803F48073002B18D17F4A7E4B1B6860
:101EEC0043F480731360FFF74DF8386108E0FFF797
:101EFC0049F802463B69D31A642B01D90323E5E068
:101F0C00754B1B6803F48073002BF0D07B68DB6887
:101F1C00012B06D16F4A6F4B1B6A43F0010313620E
:101F2C002DE07B68DB68002B0CD16A4A694B1B6A7D
:101F3C0023F001031362674A664B1B6A23F0040308
:101F4C0013621CE07B68DB68052B0CD1614A614B8A
:101F5C001B6A43F0040313625E4A5E4B1B6A43F038
:101F6C00010313620BE05B4A5A4B1B6A23F001031B
:101F7C001362584A574B1B6A23F0040313627B68A5
:101F8C00DB68002B15D0FEF7FDFF38610AE0FEF789
:101F9C00F9FF02463B69D31A41F28832934201D9C8
:101FAC00032393E04B4B1B6A03F00203002BEED090
:101FBC0014E0FEF7E7FF38610AE0FEF7E3FF0246A4
:101FCC003B69D31A41F28832934201D903237DE055
:101FDC00404B1B6A03F00203002BEED1FB7D012B5F
:101FEC0005D13C4A3B4BDB6923F08053D3617B68C2
:101FFC00DB69002B69D0374B5B6803F00C03082BB3
:10200C0061D07B68DB69022B46D1344B00221A600D
:10201C00FEF7B8FF386108E0FEF7B4FF02463B69F3
:10202C00D31A022B01D9032350E02A4B1B6803F06F
:10203C000073002BF0D17B681B6AB3F5803F08D18D
:10204C002449244B5B6823F400327B689B68134360
:10205C004B6020481F4B5B6823F474127B68196A31
:10206C007B685B6A0B43134343601C4B01221A6071
:10207C00FEF788FF386108E0FEF784FF02463B69F3
:10208C00D31A022B01D9032320E0124B1B6803F057
:10209C000073002BF0D018E0104B00221A60FEF7F2
:1020AC0071FF386108E0FEF76DFF02463B69D31AF9
:1020BC00022B01D9032309E0064B1B6803F00073C4
:1020CC00002BF0D101E0012300E000231846183763
:1020DC00BD4680BD001002400070004060004242CE
:1020EC0080B584B000AF786039600023FB607E4B14
:1020FC001B6803F007023B689A4210D27A497A4B6C
:10210C001B6823F007023B6813430B60764B1B687C
:10211C0003F007023B689A4201D00123E0E07B68A0
:10212C001B6803F00203002B20D07B681B6803F0B4
:10213C000403002B05D06D4A6C4B5B6843F4E063E1
:10214C0053607B681B6803F00803002B05D0674ABB
:10215C00664B5B6843F4605353606449634B5B6844
:10216C0023F0F0027B689B6813434B607B681B6811
:10217C0003F00103002B6AD07B685B68012B07D14D
:10218C005A4B1B6803F40033002B15D10123A7E035
:10219C007B685B68022B07D1544B1B6803F0007300
:1021AC00002B09D101239BE0504B1B6803F0020369
:1021BC00002B01D1012393E04C494C4B5B6823F07D
:1021CC0003027B685B6813434B60FEF7DBFEF86031
:1021DC007B685B68012B12D10AE0FEF7D3FE024646
:1021EC00FB68D31A41F28832934201D9032377E07A
:1021FC003E4B5B6803F00C03042BEED127E07B68AD
:10220C005B68022B1DD10AE0FEF7BCFE0246FB68A0
:10221C00D31A41F28832934201D9032360E0334B45
:10222C005B6803F00C03082BEED110E0FEF7AAFE5E
:10223C000246FB68D31A41F28832934201D9032338
:10224C004EE02A4B5B6803F00C03002BEED1264BBF
:10225C001B6803F007023B689A4210D92249224BB3
:10226C001B6823F007023B6813430B601E4B1B6873
:10227C0003F007023B689A4201D0012330E07B68EF
:10228C001B6803F00403002B08D01849174B5B683C
:10229C0023F4E0627B68DB6813434B607B681B684C
:1022AC0003F00803002B09D01049104B5B6823F492
:1022BC0060527B681B69DB0013434B6000F01CF819
:1022CC0001460A4B5B681B0903F00F03084AD35CF9
:1022DC0021FA03F3074A13600020FEF711FE0023D6
:1022EC0018461037BD4680BD002002400010024049
:1022FC00209700081800002090B48AB000AF2A4B39
:10230C003C1D0FCB84E80F00284B1B883B8000231F
:10231C00FB610023BB6100237B6200237B610023F4
:10232C003B62234B5B68FB61FB6903F00C03042BE2
:10233C0002D0082B03D02DE01E4B3B622DE0FB6935
:10234C009B0C03F00F0307F12802134413F8243CF1
:10235C007B61FB6903F48033002B13D0144B5B6857
:10236C005B0C03F0010307F12802134413F8283C1B
:10237C00BB617B690F4A02FB03F2BB69B2FBF3F34F
:10238C007B6204E07B690C4A02FB03F37B627B6A91
:10239C003B6202E0074B3B6200BF3B6A18462837A2
:1023AC00BD4690BC704700BFD84B0008E84B0008F6
:1023BC000010024000127A0000093D0080B400AF0A
:1023CC00024B1B681846BD4680BC704718000020A5
:1023DC0080B500AFFFF7F2FF0146054B5B681B0AA7
:1023EC0003F00703034AD35C21FA03F3184680BDBC
:1023FC00001002403097000880B500AFFFF7DEFFF9
:10240C000146054B5B68DB0A03F00703034AD35C08
:10241C0021FA03F3184680BD0010024030970008E3
:10242C0080B485B000AF78600A4B1B680A4AA2FBE7
:10243C0003235B0A7A6802FB03F3FB6000BFFB68B3
:10244C005A1EFA60002BF9D100BF1437BD4680BC70
:10245C00704700BF18000020D34D621080B58AB0C1
:10246C0002AFF860B9603B601346FB800023BB6190
:10247C000023FB77FB6893F85030012B01D102232A
:10248C0023E1FB68012283F85020FEF77BFDB86145
:10249C00FB6893F85130DBB2012B02D00223FB779F
:1024AC000AE1BB68002B02D0FB88002B02D1012370
:1024BC00FB7701E1FB68032283F85120FB680022C3
:1024CC005A65FB68BA681A63FB68FA889A86FB68D7
:1024DC00FA88DA86FB6800229A63FB6800229A87E6
:1024EC00FB680022DA87FB6800225A64FB68002232
:1024FC001A64FB689B68B3F5004F07D1FB681B6837
:10250C00FA681268126842F480421A60FB681B6811
:10251C001B6803F04003402B07D0FB681B68FA686C
:10252C001268126842F040021A60FB68DB68B3F56F
:10253C00006F47D1FB685B68002B04D0FB68DB8E17
:10254C009BB2012B38D1FB681B68BA681288DA6021
:10255C00BB680233BB60FB68DB8E9BB2013B9AB25B
:10256C00FB68DA8628E0FB681B689B6803F00203B3
:10257C00022B0FD1FB681B68BA681288DA60BB6843
:10258C000233BB60FB68DB8E9BB2013B9AB2FB68EB
:10259C00DA8611E03B68002B0BD03B68B3F1FF3FB0
:1025AC000AD0FEF7EFFC0246BB69D21A3B689A428E
:1025BC0002D30323FB777FE0FB68DB8E9BB2002BFF
:1025CC00D1D148E0FB685B68002B04D0FB68DB8E44
:1025DC009BB2012B3AD1FB681B680C33BA6812789A
:1025EC001A70BB680133BB60FB68DB8E9BB2013B8E
:1025FC009AB2FB68DA8629E0FB681B689B6803F0DB
:10260C000203022B10D1FB681B680C33BA681278DA
:10261C001A70BB680133BB60FB68DB8E9BB2013B5D
:10262C009AB2FB68DA8611E03B68002B0BD03B6852
:10263C00B3F1FF3F0AD0FEF7A5FC0246BB69D21AE4
:10264C003B689A4202D30323FB7735E0FB68DB8EB1
:10265C009BB2002BD0D1BB6900933B6801220221B5
:10266C00F86800F0C6FB0346002B02D00323FB776F
:10267C0022E0BA693968F86800F024FC0346002BA4
:10268C0005D00123FB77FB6820225A6514E0FB6818
:10269C009B68002B0AD100237B61FB681B68DB68FD
:1026AC007B61FB681B689B687B617B69FB685B6D6E
:1026BC00002B01D00123FB77FB68012283F851200A
:1026CC00FB68002283F85020FB7F18462037BD465C
:1026DC0080BD80B588B002AFF860B9603B6013462E
:1026EC00FB8000233B610023FB75FB685B68B3F543
:1026FC00827F12D1FB689B68002B0ED1FB680422F1
:10270C0083F85120FA883B6800931346BA68B9687D
:10271C00F86800F0ECF80346E5E0FB6893F85030FD
:10272C00012B01D10223DEE0FB68012283F850204B
:10273C00FEF728FC3861FB6893F85130DBB2012BB3
:10274C0002D00223FB75C5E0BB68002B02D0FB88CE
:10275C00002B02D10123FB75BCE0FB68042283F83B
:10276C005120FB6800225A65FB68BA689A63FB68C3
:10277C00FA889A87FB68FA88DA87FB6800221A6362
:10278C00FB6800229A86FB680022DA86FB6800222E
:10279C001A64FB6800225A64FB689B68B3F5004F0F
:1027AC0007D1FB681B68FA681268126822F4804231
:1027BC001A60FB681B681B6803F04003402B07D0B2
:1027CC00FB681B68FA681268126842F040021A60D3
:1027DC00FB68DB68002B5BD12AE0FB681B689B68FD
:1027EC0003F00103012B11D1FB681B680C331B7820
:1027FC00DAB2BB681A70BB680133BB60FB68DB8F55
:10280C009BB2013B9AB2FB68DA8711E03B68002B64
:10281C000BD03B68B3F1FF3F0AD0FEF7B3FB024687
:10282C003B69D21A3B689A4202D30323FB7551E0F1
:10283C00FB68DB8F9BB2002BCFD12EE0FB681B68B3
:10284C009B6803F00103012B10D1FB681B68DB684C
:10285C009AB2BB681A80BB680233BB60FB68DB8F23
:10286C009BB2013B9AB2FB68DA8711E03B68002B04
:10287C000BD03B68B3F1FF3F0AD0FEF783FB024657
:10288C003B69D21A3B689A4202D30323FB7521E0C1
:10289C00FB68DB8F9BB2002BD0D1FB685B68B3F578
:1028AC00827F11D1FB689B68B3F5004F04D0FB68A5
:1028BC009B68B3F5806F07D1FB681B68FA681268D8
:1028CC00126822F040021A60FB685B6D002B01D08D
:1028DC000123FB75FB68012283F85120FB68002261
:1028EC0083F85020FB7D18461837BD4680BD80B557
:1028FC008CB002AFF860B9607A607B800023FB611A
:10290C000023BB6100237B6101237B62002387F8DA
:10291C002330FB6893F85030012B01D1022381E165
:10292C00FB68012283F85020FEF72CFB7861FB68D2
:10293C0093F85130DBB2FB61FB685B68BB61FB69F0
:10294C00012B0ED0BB69B3F5827F06D1FB689B6867
:10295C00002B02D1FB69042B03D0022387F8233010
:10296C0056E1BB68002B05D07B68002B02D07B881E
:10297C00002B03D1012387F8233049E1FB6893F83E
:10298C005130DBB2012B03D1FB68052283F85120B7
:10299C00FB6800225A65FB687A689A63FB687A8840
:1029AC00DA87FB687A889A87FB68BA681A63FB68CF
:1029BC007A88DA86FB687A889A86FB6800221A6421
:1029CC00FB6800225A64FB681B681B6803F0400319
:1029DC00402B07D0FB681B68FA681268126842F03B
:1029EC0040021A60FB68DB68B3F5006F71D1FB68BD
:1029FC005B68002B04D0FB68DB8E9BB2012B5DD196
:102A0C00FB681B68BA681288DA60BB680233BB606B
:102A1C00FB68DB8E9BB2013B9AB2FB68DA864DE019
:102A2C007B6A002B1CD0FB68DB8E9BB2002B17D073
:102A3C00FB681B689B6803F00203022B10D1FB6838
:102A4C001B68BA681288DA60BB680233BB60FB682B
:102A5C00DB8E9BB2013B9AB2FB68DA8600237B6269
:102A6C00FB68DB8F9BB2002B18D0FB681B689B6844
:102A7C0003F00103012B11D1FB681B68DB689AB2D0
:102A8C007B681A807B6802337B60FB68DB8F9BB2B0
:102A9C00013B9AB2FB68DA8701237B623B6BB3F193
:102AAC00FF3F0BD0FEF76EFA02467B69D21A3B6BE6
:102ABC009A4203D3032387F82330A9E0FB68DB8E0B
:102ACC009BB2002BACD1FB68DB8F9BB2002BA7D148
:102ADC0071E0FB685B68002B04D0FB68DB8E9BB25B
:102AEC00012B5ED1FB681B680C33BA6812781A7024
:102AFC00BB680133BB60FB68DB8E9BB2013B9AB2B7
:102B0C00FB68DA864DE07B6A002B1DD0FB68DB8E00
:102B1C009BB2002B18D0FB681B689B6803F0020368
:102B2C00022B11D1FB681B6803F10C02BB68591C0A
:102B3C00B9601B781370FB68DB8E9BB2013B9AB2B9
:102B4C00FB68DA8600237B62FB68DB8F9BB2002B71
:102B5C0017D0FB681B689B6803F00103012B10D195
:102B6C007B685A1C7A60FA681268D268D2B21A7002
:102B7C00FB68DB8F9BB2013B9AB2FB68DA870123BF
:102B8C007B623B6BB3F1FF3F0BD0FEF7FBF90246C8
:102B9C007B69D21A3B6B9A4203D3032387F8233009
:102BAC0036E0FB68DB8E9BB2002BACD1FB68DB8F75
:102BBC009BB2002BA7D17B6900933B6B01220221B6
:102BCC00F86800F016F90346002B03D0032387F8AE
:102BDC0023301DE07A69396BF86800F073F903460D
:102BEC00002B06D0012387F82330FB6820225A657E
:102BFC000EE0FB689B68002B0AD100233B61FB684D
:102C0C001B68DB683B61FB681B689B683B613B692D
:102C1C00FB68012283F85120FB68002283F85020C6
:102C2C0097F8233018462837BD4680BD80B588B04C
:102C3C0000AF78607B681B685B68FB617B681B6816
:102C4C009B68BB61BB6903F04003002B0ED1BB69D1
:102C5C0003F00103002B09D0FB6903F04003002BA8
:102C6C0004D07B681B6C786898479FE0BB6903F0C5
:102C7C000203002B09D0FB6903F08003002B04D066
:102C8C007B685B6C7868984790E0BB6903F06003E5
:102C9C00002B00F08B80FB6903F02003002B00F06D
:102CAC008580BB6903F04003002B23D07B6893F82D
:102CBC005130DBB2032B11D07B685B6D43F0040207
:102CCC007B685A6500237B617B681B68DB687B61D2
:102CDC007B681B689B687B617B690BE000233B6115
:102CEC007B681B68DB683B617B681B689B683B618E
:102CFC003B695BE0BB6903F02003002B14D07B68BD
:102D0C005B6D43F001027B685A650023FB607B68B6
:102D1C001B689B68FB607B681B687A68126812688A
:102D2C0022F040021A60FB687B685B6D002B3CD084
:102D3C007B681B687A681268526822F0E0025A605D
:102D4C007B68012283F85120FB6903F00203002BFE
:102D5C0004D1FB6903F00103002B22D07B681B68B4
:102D6C007A681268526822F003025A607B68DB6C46
:102D7C00002B08D07B68DB6C0E4A5A637B68DB6CDB
:102D8C001846FEF7E7FB7B689B6C002B0CD07B682E
:102D9C009B6C084A5A637B689B6C1846FEF7DAFBFF
:102DAC0002E0786800F008F800BF00BF2037BD468D
:102DBC0080BD00BFD72D000880B483B000AF786011
:102DCC0000BF0C37BD4680BC704780B584B000AFE7
:102DDC0078607B685B6AFB60FB680022DA87FB68C3
:102DEC000022DA86F868FFF7E7FF00BF1037BD4610
:102DFC0080BD80B584B000AFF860B9607A603B608C
:102E0C004DE03B68B3F1FF3F49D03B68002B07D046
:102E1C00FEF7B8F80246BB69D21A3B689A423ED319
:102E2C00FB681B68FA681268526822F0E0025A606C
:102E3C00FB685B68B3F5827F11D1FB689B68B3F5C7
:102E4C00004F04D0FB689B68B3F5806F07D1FB681B
:102E5C001B68FA681268126822F040021A60FB685C
:102E6C009B6AB3F5005F10D1FB681A68FB681B689E
:102E7C0019684DF6FF730B401360FB681B68FA680A
:102E8C001268126842F400521A60FB68012283F83F
:102E9C005120FB68002283F8502003230EE0FB68CE
:102EAC001B689A68BB681A40BB689A4201D1012220
:102EBC0000E000227B689A42A3D100231846103709
:102ECC00BD4680BD80B586B002AFF860B9607A604F
:102EDC007B680093BB6800228021F868FFF789FFAC
:102EEC000346002B07D0FB685B6D43F02002FB68A8
:102EFC005A65032300E0002318461037BD4680BDF9
:102F0C0080B582B000AF78607B68002B01D10123C3
:102F1C0056E07B6800229A627B6893F85130DBB2F2
:102F2C00002B02D1786801F0C3FB7B68022283F886
:102F3C0051207B681B687A681268126822F0400284
:102F4C001A607B681B687A6851687A6892681143CA
:102F5C007A68D26811437A68126911437A685269A7
:102F6C0011437A68926902F4007211437A68D2694B
:102F7C0011437A68126A11437A68926A0A431A609A
:102F8C007B681B687A689269120C02F004017A68FB
:102F9C00526A0A435A607B681B687A68D26A1A6163
:102FAC007B681B687A681268D26922F40062DA6165
:102FBC007B6800225A657B68012283F8512000232C
:102FCC0018460837BD4680BD80B582B000AF78602A
:102FDC007B681B681B6903F00203022B22D17B6800
:102FEC001B68DB6803F00203022B1BD17B681B6898
:102FFC006FF002021A617B6801221A777B681B68EA
:10300C009B6903F00303002B03D0786800F0F6F8FB
:10301C0005E0786800F0E9F8786800F0F8F87B686B
:10302C0000221A777B681B681B6903F00403042BCE
:10303C0022D17B681B68DB6803F00403042B1BD1D3
:10304C007B681B686FF004021A617B6802221A7796
:10305C007B681B689B6903F44073002B03D0786872
:10306C0000F0CCF805E0786800F0BFF8786800F064
:10307C00CEF87B6800221A777B681B681B6903F00B
:10308C000803082B22D17B681B68DB6803F008035C
:10309C00082B1BD17B681B686FF008021A617B68D8
:1030AC0004221A777B681B68DB6903F00303002B8F
:1030BC0003D0786800F0A2F805E0786800F095F885
:1030CC00786800F0A4F87B6800221A777B681B688C
:1030DC001B6903F01003102B22D17B681B68DB6883
:1030EC0003F01003102B1BD17B681B686FF01002D0
:1030FC001A617B6808221A777B681B68DB6903F40A
:10310C004073002B03D0786800F078F805E07868FD
:10311C0000F06BF8786800F07AF87B6800221A7778
:10312C007B681B681B6903F00103012B0ED17B68C4
:10313C001B68DB6803F00103012B07D17B681B685C
:10314C006FF001021A61786800F046F87B681B6822
:10315C001B6903F08003802B0ED17B681B68DB6836
:10316C0003F08003802B07D17B681B686FF0800213
:10317C001A61786800F066F87B681B681B6903F0BD
:10318C004003402B0ED17B681B68DB6803F04003C7
:10319C00402B07D17B681B686FF040021A6178687E
:1031AC0000F03EF87B681B681B6903F02003202BA2
:1031BC000ED17B681B68DB6803F02003202B07D142
:1031CC007B681B686FF020021A61786800F031F898
:1031DC0000BF0837BD4680BD80B483B000AF7860B7
:1031EC0000BF0C37BD4680BC704780B483B000AFC5
:1031FC00786000BF0C37BD4680BC704780B483B08C
:10320C0000AF786000BF0C37BD4680BC704780B4FF
:10321C0083B000AF786000BF0C37BD4680BC7047F0
:10322C0080B483B000AF786000BF0C37BD4680BC63
:10323C00704780B483B000AF786000BF0C37BD46D8
:10324C0080BC704780B483B000AF786000BF0C378F
:10325C00BD4680BC704780B582B000AF78607B689B
:10326C00002B01D101233FE07B6893F83930DBB2AE
:10327C00002B06D17B68002283F83820786801F097
:10328C00C9FB7B68242283F839207B681B687A6829
:10329C001268D26822F40052DA60786800F068FB99
:1032AC007B681B687A681268126922F490421A6172
:1032BC007B681B687A681268526922F02A025A618C
:1032CC007B681B687A681268D26842F40052DA6034
:1032DC007B680022DA637B68202283F839207B68C4
:1032EC00202283F83A20002318460837BD4680BDBB
:1032FC0080B586B000AFF860B9601346FB80FB6800
:10330C0093F83930DBB2202B53D1BB68002B02D0A1
:10331C00FB88002B01D101234CE0FB6893F838307B
:10332C00012B01D1022345E0FB68012283F83820F0
:10333C00BA68FB681A62FB68FA889A84FB68FA8898
:10334C00DA84FB680022DA63FB68212283F83920D7
:10335C00FB681B6B194A9A62FB681B6B184ADA6292
:10336C00FB681B6B174A1A63FB681B6B00225A63C2
:10337C0007F108037B61FB68186B7B691968FB68B4
:10338C001B6804331A46FB88FEF784F8FB681B683D
:10339C006FF040021A60FB68002283F83820FB684B
:1033AC001B68FA681268526942F080025A61002365
:1033BC0000E0022318461837BD4680BD15360008BC
:1033CC00673600088336000880B588B000AF786097
:1033DC007B681B681B68FB617B681B68DB68BB61D7
:1033EC007B681B685B697B6100233B610023FB608E
:1033FC00FB6903F00F033B613B69002B0DD1FB69AB
:10340C0003F02003002B08D0BB6903F02003002B32
:10341C0003D0786800F02BFACCE03B69002B00F06D
:10342C00AB807B6903F00103002B05D1BB6903F46E
:10343C009073002B00F0A080FB6903F00103002BBC
:10344C000AD0BB6903F48073002B05D07B68DB6B5F
:10345C0043F001027B68DA63FB6903F00403002B81
:10346C000AD07B6903F00103002B05D07B68DB6B72
:10347C0043F002027B68DA63FB6903F00203002B62
:10348C000AD07B6903F00103002B05D07B68DB6B52
:10349C0043F004027B68DA63FB6903F00803002B3A
:1034AC000AD07B6903F00103002B05D07B68DB6B32
:1034BC0043F008027B68DA637B68DB6B002B78D007
:1034CC00FB6903F02003002B07D0BB6903F020033A
:1034DC00002B02D0786800F0CAF97B681B685B6926
:1034EC0003F04003002B14BF01230023DBB2FB606D
:1034FC007B68DB6B03F00803002B02D1FB68002B0D
:10350C0031D0786800F016F97B681B685B6903F0B2
:10351C004003002B23D07B681B687A6812685269C1
:10352C0022F040025A617B685B6B002B13D07B68E6
:10353C005B6B224A5A637B685B6B1846FEF70AF892
:10354C000346002B16D07B685B6B5B6B7A68526B07
:10355C00104698470EE0786800F04DF80AE078685D
:10356C0000F049F806E0786800F045F87B68002226
:10357C00DA631EE000BF1CE0FB6903F08003002B44
:10358C0008D0BB6903F08003002B03D0786800F0EF
:10359C0002F90FE0FB6903F04003002B0AD0BB6972
:1035AC0003F04003002B05D0786800F048F900BF09
:1035BC0000E000BF2037BD4680BD00BF7B37000850
:1035CC0080B483B000AF786000BF0C37BD4680BCC0
:1035DC00704780B483B000AF786000BF0C37BD4635
:1035EC0080BC704780B483B000AF786000BF0C37EC
:1035FC00BD4680BC704780B483B000AF786000BF1C
:10360C000C37BD4680BC704780B584B000AF786085
:10361C007B685B6AFB607B681B681B6803F020039C
:10362C00002B13D1FB680022DA84FB681B68FA6854
:10363C001268526922F080025A61FB681B68FA68B2
:10364C001268D26842F04002DA6002E0F868FFF7D4
:10365C00B7FF00BF1037BD4680BD80B584B000AF4A
:10366C0078607B685B6AFB60F868FFF7B2FF00BFAD
:10367C001037BD4680BD80B584B000AF78600023A4
:10368C00FB607B685B6ABB60BB681B685B6903F0B3
:10369C008003002B14BF01230023DBB2FB60BB684B
:1036AC0093F83930DBB2212B08D1FB68002B05D005
:1036BC00BB680022DA84B86800F027F8BB681B6886
:1036CC005B6903F04003002B14BF01230023DBB222
:1036DC00FB60BB6893F83A30DBB2222B08D1FB6855
:1036EC00002B05D0BB680022DA85B86800F022F800
:1036FC00BB68DB6B43F01002BB68DA63B868FFF79A
:10370C007AFF00BF1037BD4680BD80B483B000AFD8
:10371C0078607B681B687A681268D26822F0C002F5
:10372C00DA607B68202283F8392000BF0C37BD4655
:10373C0080BC704780B483B000AF78607B681B6836
:10374C007A681268D26822F49072DA607B681B681F
:10375C007A681268526922F001025A617B68202251
:10376C0083F83A2000BF0C37BD4680BC704780B54B
:10377C0084B000AF78607B685B6AFB60FB680022FA
:10378C00DA85FB680022DA84F868FFF734FF00BFA3
:10379C001037BD4680BD80B485B000AF78607B68C3
:1037AC0093F83930DBB2212B43D17B689B68B3F59E
:1037BC00805F19D17B681B6AFB607B681B68FA68A9
:1037CC001288C2F308025A607B681B69002B05D172
:1037DC007B681B6A9A1C7B681A620EE07B681B6A0A
:1037EC005A1C7B681A6208E07B681A687B681B6A43
:1037FC00581C796808621B7853607B68DB8C9BB221
:10380C00013B9BB27A681946D184002B0FD17B689F
:10381C001B687A681268D26822F08002DA607B68D2
:10382C001B687A681268D26842F04002DA600023A2
:10383C0000E0022318461437BD4680BC704780B5A3
:10384C0082B000AF78607B681B687A681268D268B7
:10385C0022F04002DA607B68202283F839207868F5
:10386C00FFF7AEFE002318460837BD4680BD80B575
:10387C0084B000AF78607B6893F83A30DBB2222BCF
:10388C0071D17B689B68B3F5805F23D17B689B6AA1
:10389C00FB607B681B69002B0ED17B681B685B6827
:1038AC009BB2C3F308039AB2FB681A807B689B6ACD
:1038BC009A1C7B689A6229E07B681B685B689BB2E8
:1038CC00DBB29AB2FB681A807B689B6A5A1C7B68D5
:1038DC009A621BE07B681B69002B0AD17B689B6A90
:1038EC00591C7A6891627A6812685268D2B21A705E
:1038FC000CE07B689B6A591C7A6891627A68126842
:10390C005268D2B202F07F02D2B21A707B68DB8DA1
:10391C009BB2013B9BB27A681946D185002B20D112
:10392C007B681B687A681268D26822F02002DA6021
:10393C007B681B687A681268D26822F48072DA603D
:10394C007B681B687A681268526922F001025A611E
:10395C007B68202283F83A207868FFF743FE002327
:10396C0002E0002300E0022318461037BD4680BD5C
:10397C00F0B585B000AF78600023FB607B681B68F6
:10398C007A681268126922F440517A68D2680A4344
:10399C001A617B689A687B681B691A437B685B6950
:1039AC001343FA681343FB607B681A687B681B68D7
:1039BC00DB6823F4B05323F00C03F9680B43D3609A
:1039CC007B681B687A681268526922F440717A68C5
:1039DC0092690A435A617B681B686F4A93426BD1A8
:1039EC007B681C68FEF708FD024613469B001344D7
:1039FC009A001A447B685B689B00B2FBF3F3674A3E
:103A0C00A2FB03235B091D01FEF7F6FC02461346DD
:103A1C009B0013449A001A447B685B689B00B2FBC2
:103A2C00F3F6FEF7E9FC024613469B0013449A009A
:103A3C001A447B685B689B00B2FBF3F3574AA2FB0A
:103A4C0003235B09642202FB03F3F31A1B013233D9
:103A5C00524AA2FB03235B0903F0F0031D44FEF75B
:103A6C00CBFC024613469B0013449A001A447B6815
:103A7C005B689B00B2FBF3F6FEF7BEFC02461346F6
:103A8C009B0013449A001A447B685B689B00B2FB52
:103A9C00F3F3424AA2FB03235B09642202FB03F308
:103AAC00F31A1B0132333D4AA2FB03235B0903F0DB
:103ABC000F032B44A3606AE07B681C68FEF788FC4C
:103ACC00024613469B0013449A001A447B685B68B9
:103ADC009B00B2FBF3F3314AA2FB03235B091D01EC
:103AEC00FEF776FC024613469B0013449A001A44D8
:103AFC007B685B689B00B2FBF3F6FEF769FC024641
:103B0C0013469B0013449A001A447B685B689B0025
:103B1C00B2FBF3F3214AA2FB03235B09642202FBF1
:103B2C0003F3F31A1B0132331C4AA2FB03235B0978
:103B3C0003F0F0031D44FEF74BFC024613469B00BA
:103B4C0013449A001A447B685B689B00B2FBF3F643
:103B5C00FEF73EFC024613469B0013449A001A449F
:103B6C007B685B689B00B2FBF3F30C4AA2FB03235C
:103B7C005B09642202FB03F3F31A1B013233074A7D
:103B8C00A2FB03235B0903F00F032B44A36000BFCC
:103B9C001437BD46F0BD00BF003801401F85EB5106
:103BAC0080B584B000AFF8600B467A60FB720022DF
:103BBC003721F868FCF738FDFB7A7A681946F86803
:103BCC00FCF732FD034618461037BD4680BD80B564
:103BDC0082B000AF786039603A6809217868FCF7E8
:103BEC0049FB034618460837BD4680BD80B500AF7B
:103BFC00174B184A1A60164B04225A60144B0022B9
:103C0C009A60134B0022DA60114B4FF440221A6178
:103C1C000F4B4FF480125A610D4B00221A760C4B4D
:103C2C0000225A760A4B00229A76094B0022DA7649
:103C3C00074B00221A77064B00225A770448FDF7EF
:103C4C00CDF90346002B01D0FDF717F900BF80BD5D
:103C5C00900000200064004080B588B000AF786010
:103C6C0007F1100300221A605A609A60DA607B68D0
:103C7C001B681C4A934231D11B4A1B4BDB6943F036
:103C8C000073D361184BDB6903F00073FB60FB68B6
:103C9C00154A154B9B6943F004039361124B9B69C6
:103CAC0003F00403BB60BB684FF400633B6100236B
:103CBC007B610023BB6107F1100319460B48FDF72C
:103CCC0005FE4FF480533B6102237B610323FB61B0
:103CDC0007F1100319460548FDF7F8FD00BF203722
:103CEC00BD4680BD00640040001002400008014049
:103CFC0080B582B000AF104A0F4B5B6943F00103F3
:103D0C0053610D4B5B6903F001037B607B68002200
:103D1C0000210C20FDF72DFB0C20FDF746FB0022AB
:103D2C0000210D20FDF725FB0D20FDF73EFB00BF0C
:103D3C000837BD4680BD00BF0010024080B588B07A
:103D4C0000AF07F1100300221A605A609A60DA6023
:103D5C00434A434B9B6943F010039361404B9B696F
:103D6C0003F01003FB60FB683D4A3D4B9B6943F03D
:103D7C00040393613A4B9B6903F00403BB60BB687B
:103D8C00374A374B9B6943F008039361344B9B696B
:103D9C0003F008037B607B6800224FF460413148DC
:103DAC00FDF709FF00221F212F48FDF704FF002219
:103DBC0041F2FF012D48FDF7FEFE01224FF4807108
:103DCC002948FDF7F8FE4FF460433B6101237B610A
:103DDC000023BB610223FB6107F110031946214844
:103DEC00FDF774FD40F21F133B6101237B6100233F
:103DFC00BB610223FB6107F1100319461A48FDF75A
:103E0C0065FDFF233B6101237B610023BB61032321
:103E1C00FB6107F1100319461448FDF757FD4FF4E9
:103E2C0080533B6101237B610023BB610223FB6157
:103E3C0007F1100319460D48FDF748FD4FF40073C8
:103E4C003B6100237B610023BB6107F11003194622
:103E5C000548FDF73BFD00BF2037BD4680BD00BFC8
:103E6C00001002400010014000080140000C01400D
:103E7C0080B584B000AF78233B6000237B600023C7
:103E8C00BB603B4619460E48FDF720FD85233B6081
:103E9C0000237B600023BB603B4619460948FDF7B5
:103EAC0015FD02233B6000237B600023BB603B4677
:103EBC0019460348FDF70AFD00BF1037BD4680BD0B
:103ECC00000C01400008014080B584B000AF78239D
:103EDC003B6001237B600023BB600323FB603B46FC
:103EEC0019461048FDF7F2FC85233B6001237B60EB
:103EFC000023BB600323FB603B4619460A48FDF7D1
:103F0C00E5FC02233B6001237B600023BB600323A1
:103F1C00FB603B4619460348FDF7D8FC00BF103741
:103F2C00BD4680BD000C01400008014080B500AFCB
:103F3C0001224FF400410248FDF73DFE00BF80BD59
:103F4C000010014080B500AF00224FF40041024840
:103F5C00FDF731FE00BF80BD0010014080B500AF01
:103F6C00012202210248FDF726FE00BF80BD00BFE2
:103F7C000008014080B500AF002202210248FDF785
:103F8C001AFE00BF80BD00BF0008014080B500AF25
:103F9C00012201210248FDF70EFE00BF80BD00BFCB
:103FAC000008014080B500AF002201210248FDF756
:103FBC0002FE00BF80BD00BF0008014080B500AF0D
:103FCC0001224FF480410248FDF7F5FD00BF80BD92
:103FDC000010014080B500AF00224FF48041024830
:103FEC00FDF7E9FD00BF80BD0010014080B500AFBA
:103FFC0001224FF400510248FDF7DDFD00BF80BDEA
:10400C000010014080B500AF00224FF4005102486F
:10401C00FDF7D1FD00BF80BD0010014080B483B01E
:10402C0000AF0346FB71064AFB791361044AFB7926
:10403C00DB43536100BF0C37BD4680BC704700BFEB
:10404C00000C014080B582B000AF0346FB71FB79D8
:10405C001846FFF7E3FF054B4FF480321A61034B10
:10406C0001221A6100BF0837BD4680BD000801401F
:10407C0080B582B000AF0346FB80FB881B0A9BB265
:10408C00DBB21846FFF7DEFFFB88DBB21846FFF702
:10409C00D9FF00BF0837BD4680BD000080B582B097
:1040AC0000AF0023FB7101213048FDF76DFD034685
:1040BC001A46FB791343FB7102212C48FDF764FD72
:1040CC0003465B005AB297F9073013435BB2FB719E
:1040DC0004212648FDF758FD03469B005AB297F978
:1040EC00073013435BB2FB7108212048FDF74CFDF0
:1040FC000346DB005AB297F9073013435BB2FB71EE
:10410C0010211A48FDF740FD03461B015AB297F9DE
:10411C00073013435BB2FB7120211448FDF734FDCB
:10412C0003465B015AB297F9073013435BB2FB713C
:10413C0040210E48FDF728FD03469B015AB297F922
:10414C00073013435BB2FB7180210848FDF71CFD5F
:10415C000346DB015AB297F9073013435BB2FB718C
:10416C00FB7918460837BD4680BD00BF000C0140E6
:10417C0080B582B000AF0346FB71FB791846FFF7A0
:10418C004DFFFFF727FFFFF70DFFFFF7FFFEFFF7D0
:10419C0015FF00BF0837BD4680BD80B500AFFFF7E7
:1041AC0031FFFFF723FFFFF779FF0346184680BD69
:1041BC0080B582B000AF0346FB71FB791846FFF760
:1041CC002DFFFFF7EFFEFFF7E1FE00BF0837BD46FE
:1041DC0080BD90B585B000AF396011461A460346D4
:1041EC00FB710B46BB7113467B71FFF76DFEFFF73E
:1041FC00A9FEFB791846FFF7BBFFBB79002B2AD031
:10420C007B79012B13D1FFF733FE0023FB7309E0FD
:10421C00FB7B3A68D418FFF7C0FF03462370FB7B87
:10422C000133FB73FA7BBB799A42F1D313E07B79B0
:10423C00002B10D10023BB7309E0BB7B3A681344FD
:10424C001B781846FFF7B4FFBB7B0133BB73BA7BFB
:10425C00BB799A42F1D3FFF769FE00BF1437BD4614
:10426C0090BD90B585B000AF0446084611461A467D
:10427C002346FB800346BB800B467B8013463B806A
:10428C00FB881B0A9BB2DBB23B73FB88DBB27B73F4
:10429C007B881B0A9BB2DBB2BB737B88DBB2FB73E4
:1042AC0007F10C01002304222A20FFF792FFBB88A0
:1042BC001B0A9BB2DBB23B73BB88DBB27B733B88C4
:1042CC001B0A9BB2DBB2BB733B88DBB2FB7307F1FF
:1042DC000C01002304222B20FFF77BFF002300227C
:1042EC0000212C20FFF775FF00BF1437BD4690BD91
:1042FC0080B584B000AFFFF749FEFFF777FEFFF7FC
:10430C0015FEFFF75BFEFFF735FE6420FCF744FE5D
:10431C00FFF724FE3220FCF73FFE36233B700423CC
:10432C007B700023BB703C23FB700F233B718F23EE
:10433C007B71394600230622F120FFF74AFF182330
:10434C003B70A3237B701223BB700223FB70B22340
:10435C003B7112237B71FF23BB711023FB71002374
:10436C003B72394600230922F220FFF732FF21234A
:10437C003B7004237B70394600230222F820FFF7A0
:10438C0028FF00233B7008237B7039460023022250
:10439C00F920FFF71EFF08233B703946002301224A
:1043AC003620FFF716FF00233B703946002301220D
:1043BC00B420FFF70EFF41233B7039460023012246
:1043CC00C120FFF706FF00233B7091237B708023F5
:1043DC00BB700023FB70394600230422C520FFF775
:1043EC00F8FE0F233B701F237B701C23BB700C2328
:1043FC00FB700F233B7108237B714823BB719823FF
:10440C00FB7137233B720A237B721323BB72042389
:10441C00FB7211233B730D237B730023BB73394653
:10442C0000230F22E020FFF7D4FE0F233B70322332
:10443C007B702E23BB700B23FB700D233B7105236C
:10444C007B714723BB717523FB7137233B720623AA
:10445C007B721023BB720323FB7224233B73202338
:10446C007B730023BB73394600230F22E120FFF737
:10447C00B0FE55233B703946002301223A20FFF74A
:10448C00A8FE0023002200211120FFF7A2FE282302
:10449C003B703946002301223620FFF79AFE782024
:1044AC00FCF77AFD0023002200212920FFF791FE62
:1044BC0038233B703946002301223620FFF789FE52
:1044CC0000BF1037BD4680BD80B584B000AF034639
:1044DC00FB804FF4A0734FF4F07200210020FFF723
:1044EC00C0FEFFF72FFD2C20FFF742FE0023FB60E0
:1044FC0006E0FB881846FFF7BBFDFB680133FB6049
:10450C00FB68B3F5163FF4D3FFF710FD00BF10376F
:10451C00BD4680BD90B587B000AFF8600846114627
:10452C001A4603467B810B463B811346FB807A89F6
:10453C00FB8813449BB2013B9CB23A893B8D1344DC
:10454C009BB2013B9BB2398978892246FFF789FEE1
:10455C002C20FFF70DFEFFF7F5FC00237B6120E01C
:10456C0008233B6117E0FA687B6913441B781A46F1
:10457C003B69013B42FA03F303F00103002B03D028
:10458C000020FFF775FD03E04FF6FF70FFF770FD9D
:10459C003B69013B3B613B69002BE4D17B690133F7
:1045AC007B61FB883A8D02FB03F3002B00DA0733A7
:1045BC00DB101A467B699A42D2D840F2DF1340F2E4
:1045CC003F1200210020FFF74CFEFFF7AFFC00BFAD
:1045DC001C37BD4690BD000080B500AF174B184A84
:1045EC001A60164B4FF482725A60144B00229A6078
:1045FC00124B0022DA60114B00221A610F4B002281
:10460C005A610E4B4FF400729A610C4B0822DA611E
:10461C000A4B00221A62094B00225A62074B0022F5
:10462C009A62064B0A22DA620448FEF769FC0346DA
:10463C00002B01D0FCF721FC00BF80BD1001002035
:10464C000030014080B500AF174B184A1A60164B6A
:10465C004FF482725A60144B00229A60124B002263
:10466C00DA60114B00221A610F4B00225A610E4B7B
:10467C004FF400729A610C4B1822DA610A4B00223B
:10468C001A62094B00225A62074B00229A62064BAF
:10469C000A22DA620448FEF733FC0346002B01D0F1
:1046AC00FCF7EBFB00BF80BDB800002000380040D9
:1046BC0080B58AB000AF786007F1180300221A6049
:1046CC005A609A60DA607B681B684E4A93425ED1EE
:1046DC004D4A4D4B9B6943F4805393614A4B9B6904
:1046EC0003F480537B617B69474A474B9B6943F0DA
:1046FC0004039361444B9B6903F004033B613B69E6
:10470C00A023BB610223FB6103237B6207F1180327
:10471C0019463E48FDF7DAF84023BB610023FB61E4
:10472C0000233B6207F1180319463848FDF7CEF811
:10473C00374B384A1A60364B10225A60344B0022E1
:10474C009A60334B8022DA60314B00221A61304B75
:10475C0000225A612E4B00229A612D4B0022DA6105
:10476C002B48FCF73DFE0346002B01D0FCF785FBE4
:10477C007B68274A9A64264A7B6853620022002190
:10478C002320FCF7F6FD2320FCF70FFE36E07B68B8
:10479C001B68214A934231D11B4A1B4BDB6943F402
:1047AC008043D361184BDB6903F48043FB60FB68E7
:1047BC00154A154B9B6943F008039361124B9B6997
:1047CC0003F00803BB60BB684FF42043BB610223BA
:1047DC00FB6103237B6207F1180319460F48FDF7B1
:1047EC0075F84FF48043BB610023FB6101233B62EE
:1047FC0007F1180319460948FDF768F800BF283778
:10480C00BD4680BD00300140001002400008014050
:10481C00680100203000024000380040000C0140CC
:10482C0080B584B000AF194A184B9B6943F0010363
:10483C009361164B9B6903F00103BB60BB68134A81
:10484C00124BDB6943F08053D361104BDB6903F0EF
:10485C0080537B607B68002200210120FCF789FDDE
:10486C000120FCF7A2FD0A4B5B68FB60FB6823F0A0
:10487C00E063FB60FB6843F00073FB60044AFB6879
:10488C00536000BF1037BD4680BD00BF0010024012
:10489C000000014080B400AF00BFBD4680BC704733
:1048AC0080B400AFFEE780B400AFFEE780B400AF89
:1048BC00FEE780B400AFFEE780B400AF00BFBD469A
:1048CC0080BC704780B400AF00BFBD4680BC704751
:1048DC0080B400AF00BFBD4680BC704780B500AF50
:1048EC00FCF73EFB00BF80BD80B500AFFDF77CF947
:1048FC0000BF80BD80B500AF0248FCF7A7FE00BF2B
:10490C0080BD00BF2C02002080B500AF0248FCF730
:10491C009DFE00BF80BD00BF6801002080B500AFC8
:10492C000248FEF751FB00BF80BD00BFAC01002068
:10493C0080B500AF0248FEF779F900BF80BD00BF1B
:10494C001001002080B500AF0248FEF73DFD00BF0E
:10495C0080BD00BFEC01002080B400AF154A154BA0
:10496C001B6843F0010313601249124B5A68124B37
:10497C0013404B600F4A0F4B1B6823F0847323F4D6
:10498C00803313600B4A0B4B1B6823F4802313609A
:10499C00084A084B5B6823F4FE035360054B4FF445
:1049AC001F029A60054B4FF000629A6000BFBD4633
:1049BC0080BC7047001002400000FFF800ED00E0E2
:1049CC0080B500AF114B124A1A60104B4FF4E13214
:1049DC005A600E4B00229A600C4B0022DA600B4B93
:1049EC0000221A61094B08225A61084B00229A6175
:1049FC00064B0022DA610548FEF72DFC0346002B1E
:104A0C0001D0FCF73AFA00BF80BD00BFEC010020DA
:104A1C000048004080B588B000AF786007F1100303
:104A2C0000221A605A609A60DA607B681B68334A0D
:104A3C0093425FD1324A324BDB6943F48023D3611A
:104A4C002F4BDB6903F48023FB60FB682C4A2C4B57
:104A5C009B6943F008039361294B9B6903F008039E
:104A6C00BB60BB684FF480633B6102237B61032313
:104A7C00FB6107F1100319462248FCF727FF4FF49E
:104A8C0000633B6100237B610023BB6107F11003D2
:104A9C0019461C48FCF71AFF1B4B1C4A1A601A4B90
:104AAC0010225A60184B00229A60174B8022DA6051
:104ABC00154B00221A61144B00225A61124B002232
:104ACC009A61114B0022DA610F48FCF789FC03460E
:104ADC00002B01D0FCF7D1F97B680B4A1A630A4A08
:104AEC007B685362002200212720FCF742FC272020
:104AFC00FCF75BFC00BF2037BD4680BD0048004082
:104B0C0000100240000C01402C0200201C0002404E
:104B1C00002103E00B4B5B58435004310A480B4B0C
:104B2C0042189A42F6D30A4A02E0002342F8043BA8
:104B3C00084B9A42F9D3FFF70FFF00F00FF8FCF780
:104B4C00B7F8704744970008000000201C000020B4
:104B5C002000002070020020FEE7000070B5002548
:104B6C000C4E0D4CA41BA410A54209D100F022F848
:104B7C0000250A4E0A4CA41BA410A54205D170BDF9
:104B8C0056F8253098470135EEE756F8253098470A
:104B9C000135F2E738970008389700083897000875
:104BAC004097000803460244934200D1704703F833
:104BBC00011BF9E7F8B500BFF8BC08BC9E4670476E
:0C4BCC00F8B500BFF8BC08BC9E4670475E
:104BD80002030405060708090A0B0C0D0E0F101036
:104BE800010200000008090A0D11181920212637B2
:104BF8003A1729000104FEFDFC1F0500FFFFFFFF17
:104C08000008090A0D111819202126373A1729001A
:104C18000104FEFDFC1F0500FFFFFFFFFFFFFFFF74
:104C2800FFFFFFFFFFFFFFFFFFFFFFFFFFFFFFFF8C
:104C3800FFFFFFFFFFFFFFFFFFFFFFFFFFFFFFFF7C
:104C4800FFFFFFFFFFFFFFFFFFFFFFFFFFFFFFFF6C
:104C5800FFFFFFFFFFFFFFFFFFFFFFFFFFFFFFFF5C
:10550800FFC00000000000000000000000000000D4
:1055180000000003FFFFFFFFFFFFFFFFFFFFFFFF8C
:10552800FFFFFFFFFFFFFFFFFFFFFFFFFFFFFFFF83
:10553800FFFFFFFFFFFFFFFFFFFFFFFFFFC00000B0
:105548000000000000000000000000000000000350
:10555800FFFFFFFFFFFFFFFFFFFFFFFFFFFFFFFF53
:10556800FFFFFFFFFFFFFFFFFFFFFFFFFFFFFFFF43
:10557800FFFFFFFFFFFFFFFFFFC00000000000006C
:105588000000000000000FFF80000003FFFFFFFF86
:10559800FFFFFFFFFFFFFFFFFFFFFFFFFFFFFFFF13
:1055A800FFFFFFFFFFFFFFFFFFFFFFFFFFFFFFFF03
:1055B800FFFFFFFFFFCFFFFFFFFFFFFFFFFFFFFF23
:1055C800FFFFFFFFFFFFFFE3FFFFFFFFFFFFFFFFFF
:1055D800FFFFFFFFFFFFFFFFFFFFFFFFFFFFFFFFD3
:1055E800FFFFFFFFFFFFFFFFFFFFFFFFFFFFFFFFC3
:1055F800FFCFFFFFFFFFFFFFFFFFFFFFFFFFFFFFE3
:10560800FFFFFFE3FFFFFFFFFFFFFFFFFFFFFFFFBE
:10561800FFFFFFFFFFFFFFFFFFFFFFFFFFFFFFFF92
:10562800FFFFFFFFFFFFFFFFFFFFFFFFFFCFFFFFB2
:10563800FFFFFFFFFFFFFFFFFFFFFFFFFFFFFFE38E
:10564800FFFFFFFFFFFFFFFFFFFFFFFFFFFFFFFF62
:10565800FFFFFFFFFFFFFFFFFFFFFFFFFFFFFFFF52
:10566800FFFFFFFFFFFFFFFFFFCFFFFFFFFFFFFF72
:10567800FFFFFFFFFFFFFFFFFFFFFFE3FFFFFFFF4E
:10568800FFFFFFFFFFFFFFFFFFFFFFFFFFFFFFFF22
:10569800FFFFFFFFFFFFFFFFFFFFFFFFFFFFFFFF12
:1056A800FFFFFFFFFFCFFFFFFFFFFFFFFFFFFFFF32
:1056B800FFFFFFFFFFFFFFE3FFFFFFFFFFFFFFFF0E
:1056C800FFFFFFFFFFFFFFFFFFFFFFFFFFFFFFFFE2
:1056D800FFFFFFFFFFFFFFFFFFFFFFFFFFFFFFFFD2
:1056E800FFCFFFFFFFFFFFFFFFFFFFFFFFFFFFFFF2
:1056F800FFFFFFE3FFFFFFFFFFFFFE0FFE0FFC0FA3
:10570800FC1FFFFFFFFFFFFFFFFFFFFFFFFFFFFF84
:105718000FFFFFFFFC3FFFFFFFFFFFFFFFCFFFFF74
:10572800FFFFFFFFFFFFFFFFFFFFFFFFFFFFFFE39D
:10573800FFFFFFFFFFFFF803F807F807F807FFFF71
:10574800FFFFFFFFFFFFFFFFFFFFFFFF0FFFFFFF51
:10575800FC3FFFFFFFFFFFFFFFCFFFFFFFFFFFFF44
:10576800FFFFFFFFFFFFFFFFFFFFFFE3FFFFFFFF5D
:10577800FFFFF1E3F1E3F1E3F1E3FFFFFFFFFFFFD9
:10578800FFFFFFFFFFFFFFFF0FFFFFFFFC3FFFFFD4
:10579800FFFFFFFFFFCFFFFFFFFFFFFFFFFFFFFF41
:1057A800FFFFFFFFFFFFFFE3FFFFFFFFFFFFF3F137
:1057B800E3F1E3F3E3F3FFFFFFFFFFFFFFFFFFFF6B
:1057C800FFFFFFFF8FFFFFFFFC3FFFFFFFFFFFFF14
:1057D800FFCFFFFFFFFFFFFFFFFFFFFFFFFFFFFF01
:1057E800FFFFFFE3FFFFFFFFFFFFE3F9E7F9E7F143
:1057F800E7F3FFFFFFFFFFFFFFFFFFFFFFFFFFFFD5
:10580800FFFFFFFFFFFFFFFFFFFFFFFFFFCFFFFFD0
:10581800FFFFFFFFFFFFFFFFFFFFFFFFFFFFFFE3AC
:10582800FFFFFFFFFFFFE7FFE7FFC7FFC7FFFFFF20
:10583800FFFFFFFFFFFFFFFFFFFFFFFFFFFFFFFF70
:10584800FFFFFFFFFFFFFFFFFFCFFFFFFFFFFFFF90
:10585800FFFFFFFFFFFFFFFFFFFFFFE3FFFFFFFF6C
:10586800FFFFE7FFC7FFC7FFCFFFFFFFFFFFFFFFF8
:10587800FFFFFFFFFFFFFFFFFFFFFFFFFFFFFFFF30
:10588800FFFFFFFFFFCFFFFFFFFFFFFFFFFFFFFF50
:10589800FFFFFFFFFFFFFFE3FFFFFFFFFFFFC71F44
:1058A800C71FCE1FCE1FFFFFFFFFFFFFFFFFFFFF3A
:1058B800FFFFFFFFFFFFFFFFFFFFFFFFFFFFFFFFF0
:1058C800FFCFFFFFFFFFFFFFFFFFFFFFFFFFFFFF10
:1058D800FFFFFFE3FFFFFFFFFFFFC407CC07CC0775
:1058E800C807FFFFFFFFFFFFFFFFFFFFFFFFFFFFEF
:1058F800FFFFFFFFFFFFFFFFFFFFFFFFFFCFFFFFE0
:10590800FFFFFFFFFFFFFFFFFFFFFFFFFFFFFFE3BB
:10591800FFFFFFFFFFFFC0C3C1C3C1C3C1C3FFFF78
:10592800FFFFFFFFFFFFFE007003800FFF800E00E8
:105938007FFE003FFFFFFFFFFFCFFFFFFFFFFF00DE
:10594800000000000003FFFFFFFFFFE3FFFFFFFF72
:10595800FFFFC3F1C3F1C3E3C7E3FFFFFFFFFFFF8F
:10596800FFFFFE007003800FFF800E007FFE003FE8
:10597800FFFFFFFFFFCFFFFFFFFFFF00000000005A
:105988000003FFFFFFFFFFE3FFFFFFFFFFFFC7F974
:10599800C7F1C7F1C7F1FFFFFFFFFFFFFFFFFE00E1
:1059A8007003800FFF800E007FFE007FFFFFFFFF68
:1059B800FFCFFFFFFFFFFF00000000000003FFFF15
:1059C800FFFFFFE3FFFFFFFFFFFFC7F9C7F9C7F9B5
:1059D800CFF1FFFFFFFFFFFFFFFFFFFFFFFFFFFF0D
:1059E800FFFFFFFFFFFFFFFFFFFFFFFFFFCFFFFFEF
:1059F800FFFFFF00000000000003FFFFFFFFFFE3C1
:105A0800FFFFFFFFFFFFC7F9C7F9C7F9CFF9FFFF8E
:105A1800FFFFFFFFFFFFFFFFFFFFFFFFFFFFFFFF8E
:105A2800FFFFFFFFFFFFFFFFFFCFFFFFFFFFFF00AD
:105A3800000000000003FFFFFFFFFFE3FFFFFFFF81
:105A4800FFFFE7F9C7F9C7F9CFF1FFFFFFFFFFFF36
:105A5800FFFFFFFFFFFFFFFFFFFFFFFFFFFFFFFF4E
:105A6800FFFFFFFFFFCFFFFFFFFFFF000000000069
:105A78000003FFFFFFFFFFE3FFFFFFFFFFFFE7F963
:105A8800E7F9C7F1CFF1FFFFFFFFFFFFFFFFFFFFC0
:105A9800FFFFFFFFFFFFFFFFFFFFFFFFFFFFFFFF0E
:105AA800FFCFFFFFFFFFFF00000000000003FFFF24
:105AB800FFFFFFE3FFFFFFFFFFFFE3F1E7F1E7F180
:105AC800E7F3FFFFFFFFFFFFFFFFFFFFFFFFFFFF02
:105AD800FFFFFFFFFFFFFFFFFFFFFFFFFFCFFFFFFE
:105AE800FFFFFF3819F87E0FCC1BFFFFFFFFFFE316
:105AF800FFFFFFFFFFFFF3F1E3E3E3E3E3E3FFFF70
:105B0800FFFFFFFFFFFFFFFFFFFFFFFFFFFFFFFF9D
:105B1800FC3FFFFFFFFFFFFFFFCFFFFFFFFFFF3C43
:105B28001808C380461BFFFFFFFFFFE3FFFFFFFFCF
:105B3800FFFFF0C3F0C3F1C7F187FFFFFFFFFFFFCF
:105B4800FFFFFFFFFFFFFFFFFFFFFFFFFC3FFFFF20
:105B5800FFFFFFFFFFCFFFFFFFFFFF3C1808C180DB
:105B6800461BFFFFFFFFFFE3FFFFFFFFFFFFFC07F1
:105B7800F807F80FF80FFFFFFFFFFFFFFFFFFFFF1A
:105B8800FFFFFFFFFFFFFFFFFC3FFFFFFFFFFFFFE0
:105B9800FFCFFFFFFFFFFF361808C0C0431BFFFF02
:105BA800FFFFFFE3FFFFFFFFFFFFFFBFFFBFFF7F19
:105BB800FF7FFFFFFFFFFFFFFFFFFFFFFFFFFFFF6D
:105BC800FFFFFFFFFEFFFFFFFFFFFFFFFFCFFFFF0E
:105BD800FFFFFF321808C0C0419BFFFFFFFFFFE334
:105BE800FFFFFFFFFFFFFFFFFFFFFFFFFFFFFFFFBD
:105BF800FFFFFFFFFFFFFFFFFFFFFFFFFFFFFFFFAD
:105C0800FFFFFFFFFFFFFFFFFFCFFFFFFFFFFF3398
:105C18001808F04040FBFFFFFFFFFFE3FFFFFFFF17
:105C2800FFFFFFFFFFFFFFFFFFFFFFFFFFFFFFFF7C
:105C3800FFFFFFFFFFFFFFFFFFFFFFFFFFFFFFFF6C
:105C4800FFFFFFFFFFCFFFFFFFFFFF3199F8004F76
:105C5800C31BFFFFFFFFFFE3FFFFFFFFFFFFFFFF88
:105C6800FFFFFFFFFFFFFFFFFFFFFFFFFFFFFFFF3C
:105C7800FFFFFFFFFFFFFFFFFFFFFFFFFFFFFFFF2C
:105C8800FFCFFFFFFFFFFF31980800C0461BFFFF53
:105C9800FFFFFFE3FFFFFFFFFFFFFFFFFFFFFFFF28
:105CA800FFFFFFFFFFFFFFFFFFFFFFFFFFFFFFFFFC
:105CB800FFFFFFFFFFFFFFFFFFFFFFFFFFCFFFFF1C
:105CC800FFFFFF30D80800C0461BFFFFFFFFFFE3C0
:105CD800FFFFFFFFFFFFFFFFFFFFFFFFFFFFFFFFCC
:105CE800FFFFFFFFFFFFFFFFFFFFFFFFFFFFFFFFBC
:105CF800FFFFFFFFFFFFFFFFFFCFFFFFFFFFFF30AB
:105D080078080180461BFFFFFFFFFFE3FFFFFFFF4F
:105D1800FFFFFFFFFFFFFFFFFFFFFFFFFFFFFFFF8B
:105D2800FFFFFFFFFFFFFFFFFFFFFFFFFFFFFFFF7B
:105D3800FFFFFFFFFFCFFFFFFFFFFF307808C30023
:105D4800431BFFFFFFFFFFE3FFFFFFFFFFFFFFFF17
:105D5800FFFFFFFFFFFFFFFFFFFFFFFFFFFFFFFF4B
:105D6800FFFFFFFFFFFFFFFFFFFFFFFFFFFFFFFF3B
:105D7800FFCFFFFFFFFFFF3039F87E0FC1FBFFFFAA
:105D8800FFFFFFE3FFFFFFFFFFFFFFFFFFFFFFFF37
:105D9800FFFFFFFFFFFFFFFFFFFFFFFFFFFFFFFF0B
:105DA800FFFFFFFFFFFFFFFFFFFFFFFFFFCFFFFF2B
:105DB800FFFFFF00000000000003FFFFFFFFFFE3FD
:105DC800FFFFFFFFFFFFFFFFFFFFFFFFFFFFFFFFDB
:105DD800FFFFFFFFFFFFFFFFFFFFFFFFFFFFFFFFCB
:105DE800FFFFFFFFFFFFFFFFFFCFFFFFFFFFFF00EA
:105DF800000000000003FFFFFFFFFFE3FFFFFFFFBE
:105E0800FFFFFFFFFFFFFFFFFFFFFFFFFFFFFFFF9A
:105E1800FFFFFFFFFFFFFFFFFFFFFFFFFFFFFFFF8A
:105E2800FFFFFFFFFFCFFFFFFFFFFF0000000000A5
:105E38000003FFFFFFFFFFE3FFFFFFFFFFFFFFFF81
:105E4800FFFFFFFFFFFFFFFFFFFFFFFFFFFFFFFF5A
:105E5800FFFFFFFFFFFFFFFFFFFFFFFFFFFFFFFF4A
:105E6800FFCFFFFFFFFFFF00000000000003FFFF60
:105E7800FFFFFFE3FFFFFFFFFFFFFFFFFFFFFFFF46
:105E8800FFFFFFFFFFFFFFFFFFFFFFFFFFFFFFFF1A
:105E9800FFFFFFFFFFFFFFFFFFFFFFFFFFCFFFFF3A
:105EA800FFFFFF00000000000003FFFFFFFFFFE30C
:105EB800FFFFFFFFFFFFFFFFFFFFFFFFFFFFFFFFEA
:105EC800FFFFFFFFFFFFFFFFFFFFFFFFFFFFFFFFDA
:105ED800FFFFFFFFFFFFFFFFFFCFFFFFFFFFFFFFFA
:105EE800FFFFFFFFFFFFFFFFFFFFFFE3FFFFFFFFD6
:105EF800FFFFFFFFFFFFFFFFFFFFFFFFFFFFFFFFAA
:105F0800FFFFFFFFFFFFFFFFFFFFFFFFFFFFFFFF99
:105F1800FFFFFFFFFFCFFFFFFFFFFFFFFFFFFFFFB9
:105F2800FFFFFFFFFFFFFFE3FFFFFFFFFFFFFFFF95
:105F3800FFFFFFFFFFFFFFFFFFFFFFFFFFFFFFFF69
:105F4800FFFFFFFFFFFFFFFFFFFFFFFFFFFFFFFF59
:105F5800FFCFFFFFFFFFFFFFFFFFFFFFFFFFFFFF79
:105F6800FFFFFFE3FFFFFFFFFFFFFFFFFFFFFFFF55
:105F7800FFFFFFFFFFFFFFFFFFFFFFFFFFE036769A
:105F8800FBFFF4FB07FFFFFFFFFFFFFFFFCFFFFF54
:105F9800FFFFFFFFFFFFFFFFFFFFFFFFFFFFFFE325
:105FA800FFFFFFFFFFFFFFFFFFFFFFFFFFFFFFFFF9
:105FB800FFFFFFFFFFFFFFFFFFFF3676FBFFF6FB4C
:105FC800F7FFFFFFFFFFFFFFFFCFFFFFFFFFFFFF11
:105FD800FFFFFFFFFFFFFFFFFFFFFFE3FFFFFFFFE5
:105FE800FFFFFFFFFFFFFFFFFFFFFFFFFFFFFFFFB9
:105FF800FFFFFFFFFFFF36B6FBFFF673F7FFFFFF5C
:10600800FFFFFFFFFFCFFFFFFFFFFFFFFFFFFFFFC8
:10601800FFFFFFFFFFFFFFE3FFFFFFFFFFFFFFFFA4
:10602800FFFFFFFFFFFFFFFFFFFFFFFFFFFFFFFF78
:10603800FFFF35B6FBFFE777F7FFFFFFFFFFFFFF27
:10604800FFCFFFFFFFFFFFFFFFFFFFFFFFFFFFFF88
:10605800FFFFFFE3FFFFFFFFFFFFFFFFFFFFFFFF64
:10606800FFFFFFFFFFFFFFFFFFFFFFFFFFE035B66A
:10607800FBFC0777F7FFFFFFFFFFFFFFFFCFFFFFE7
:10608800FFFFFFFFFFFFFFFFFFFFFFFFFFFFFFE334
:10609800FFFFFFFFFFFFFFFFFFFFFFFFFFFFFFFF08
:1060A800FFFFFFFFFFFFFFFFFFFF35D6FBFDF727D1
:1060B800F7FFFFFFFFFFFFFFFFCE000000001FF804
:1060C80000000000007FFC00000001E3FFFFFFFF6D
:1060D800FFFFFFFFFFFFFFFFFFFFFFFFFFFFFFFFC8
:1060E800FFFFFFFFFFFF33D6FBFDF7AFF7FFFFFF13
:1060F800FFFFFFFFFFCE000000001FF800000000B8
:10610800007FFC00000001E3FFFFFFFFFFFFFFFF30
:10611800FFFFFFFFFFFFFFFFFFFFFFFFFFFFFFFF87
:10612800FFFF33C6FBFDF7AFF7FFFFFFFFFFFFFFE2
:10613800FFCE000000001FF800000000007FFC00F8
:10614800000001E3FFFFFFFFFFFFFFFFFFFFFFFF6F
:10615800FFFFFFFFFFFFFFFFFFFFFFFFFFE037E647
:10616800C07E07DFF7FFFFFFFFFFFFFFFFCE000046
:1061780000001FF800000000007FFC00000001E3A1
:10618800FFFFFFFFFFFFFFFFFFFFFFFFFFFFFFFF17
:10619800FFFFFFFFFFFFFFFFFFFFFFFFFFFFFFFF07
:1061A800FFFFFFFFFFFFFFFFFFCE000000001FF80B
:1061B80000000000007FFC00000001E3FFFFFFFF7C
:1061C800FFFFFFFFFFFFFFFFFFFFFFFFFFFFFFFFD7
:1061D800FFFFFFFFFFFFFFFFFFFFFFFFFFFFFFFFC7
:1061E800FFFFFFFFFFCE000000001FF800000000C7
:1061F800007FFC00000001E3FFFFFFFFFFFFFFFF40
:10620800FFFFFFFFFFFFFFFFFFFFFFFFFFFFFFFF96
:10621800FFFFFFFFFFFFFFFFFFFFFFFFFFFFFFFF86
:10622800FFCE000000001FF800000000007FFC0007
:10623800000001E3FFFFFFFFFFFFFFFFFFFFFFFF7E
:10624800FFFFFFFFFFFFFFFFFFFFFFFFFFFFFFFF56
:10625800FFFFFFFFFFFFFFFFFFFFFFFFFFCE3E1027
:10626800C20FDFF81F00401301FFFC1F07C1F9E34D
:10627800FFFFFFFFFFFFFFFFFFFFFFFFFFFFFFFF26
:10628800FFFFFFFFFFFFFFFFFFFFFFFFFFFFFFFF16
:10629800FFFFFFFFFFFFFFFFFFCE6110C230DFF8F7
:1062A80030804011017FFC61887009E3FFFFFFFF28
:1062B800FFFFFFFFFFFFFFFFFFFFFFFFFFFFFFFFE6
:1062C800FFFFFFFFFFFFFFFFFFFFFFFFFFFFFFFFD6
:1062D800FFFFFFFFFFCE4011E230DFF82000401142
:1062E800837FFC40803009E3FFFFFFFFFFFFFFFFD4
:1062F800FFFFFFFFFFFFFFFFFFFFFFFFFFFFFFFFA6
:10630800FFFFFFFFFFFFFFFFFFFFFFFFFFFFFFFF95
:10631800FFCE60116230DFF830004011837FFCC08F
:10632800C01809E3FFFFFFFFFFFFFFFFFFFFFFFFAD
:10633800FFFFFFFFFFFFFFFFFFFFFFFFFFFFFFFF65
:10634800FFFFFFFFFFFFFFFFFFFFFFFFFFCE701103
:106358002230DFF838004010FE7FFCC0C01809E387
:10636800FFFFFFFFFFFFFFFFFFFFFFFFFFFFFFFF35
